{"abi":[{"type":"constructor","inputs":[],"stateMutability":"nonpayable"},{"type":"receive","stateMutability":"payable"},{"type":"function","name":"balance","inputs":[{"name":"","type":"address","internalType":"address"}],"outputs":[{"name":"","type":"uint256","internalType":"uint256"}],"stateMutability":"view"},{"type":"function","name":"done","inputs":[{"name":"amount","type":"uint256","internalType":"uint256"}],"outputs":[],"stateMutability":"nonpayable"},{"type":"function","name":"owner","inputs":[],"outputs":[{"name":"","type":"address","internalType":"address"}],"stateMutability":"view"},{"type":"function","name":"withdraw","inputs":[],"outputs":[],"stateMutability":"nonpayable"}],"bytecode":{"object":"0x6080604052348015600f57600080fd5b50600080546001600160a01b031916331790556102e6806100316000396000f3fe6080604052600436106100435760003560e01c80633ccfd60b1461007457806358a743c71461008b5780638da5cb5b146100ab578063e3d670d7146100e857600080fd5b3661006f5733600090815260016020526040812080543492906100679084906101fa565b925050819055005b600080fd5b34801561008057600080fd5b50610089610123565b005b34801561009757600080fd5b506100896100a6366004610213565b610193565b3480156100b757600080fd5b506000546100cb906001600160a01b031681565b6040516001600160a01b0390911681526020015b60405180910390f35b3480156100f457600080fd5b5061011561010336600461022c565b60016020526000908152604090205481565b6040519081526020016100df565b6000546001600160a01b031633146101565760405162461bcd60e51b815260040161014d9061025c565b60405180910390fd5b600080546040516001600160a01b03909116914780156108fc02929091818181858888f19350505050158015610190573d6000803e3d6000fd5b50565b6000546001600160a01b031633146101bd5760405162461bcd60e51b815260040161014d9061025c565b33600090815260016020526040812080548392906101dc90849061029d565b909155505050565b634e487b7160e01b600052601160045260246000fd5b8082018082111561020d5761020d6101e4565b92915050565b60006020828403121561022557600080fd5b5035919050565b60006020828403121561023e57600080fd5b81356001600160a01b038116811461025557600080fd5b9392505050565b60208082526021908201527f4f6e6c79206f776e65722063616e2063616c6c20746869732066756e6374696f6040820152603760f91b606082015260800190565b8181038181111561020d5761020d6101e456fea264697066735822122031e851c23f962c7c01e79e5fb9dcf75b802b5e942bc31a95a89ee7b851171e3a64736f6c634300081a0033","linkReferences":{}},"methodIdentifiers":{"balance(address)":"e3d670d7","done(uint256)":"58a743c7","owner()":"8da5cb5b","withdraw()":"3ccfd60b"},"id":0}